{
  "_format": "hh-sol-artifact-1",
  "contractName": "CropRecord",
  "sourceName": "contracts/CropRecord.sol",
  "abi": [
    {
      "inputs": [],
      "name": "cropCount",
      "outputs": [
        {
          "internalType": "uint256",
          "name": "",
          "type": "uint256"
        }
      ],
      "stateMutability": "view",
      "type": "function"
    },
    {
      "inputs": [
        {
          "internalType": "uint256",
          "name": "",
          "type": "uint256"
        }
      ],
      "name": "crops",
      "outputs": [
        {
          "internalType": "uint256",
          "name": "id",
          "type": "uint256"
        },
        {
          "internalType": "uint256",
          "name": "farmerId",
          "type": "uint256"
        },
        {
          "internalType": "string",
          "name": "cropType",
          "type": "string"
        },
        {
          "internalType": "uint256",
          "name": "fieldArea",
          "type": "uint256"
        },
        {
          "internalType": "string",
          "name": "description",
          "type": "string"
        }
      ],
      "stateMutability": "view",
      "type": "function"
    },
    {
      "inputs": [],
      "name": "farmerCount",
      "outputs": [
        {
          "internalType": "uint256",
          "name": "",
          "type": "uint256"
        }
      ],
      "stateMutability": "view",
      "type": "function"
    },
    {
      "inputs": [
        {
          "internalType": "address",
          "name": "",
          "type": "address"
        }
      ],
      "name": "farmerIdByAddress",
      "outputs": [
        {
          "internalType": "uint256",
          "name": "",
          "type": "uint256"
        }
      ],
      "stateMutability": "view",
      "type": "function"
    },
    {
      "inputs": [
        {
          "internalType": "uint256",
          "name": "",
          "type": "uint256"
        }
      ],
      "name": "farmers",
      "outputs": [
        {
          "internalType": "uint256",
          "name": "id",
          "type": "uint256"
        },
        {
          "internalType": "string",
          "name": "name",
          "type": "string"
        },
        {
          "internalType": "address",
          "name": "farmerAddress",
          "type": "address"
        }
      ],
      "stateMutability": "view",
      "type": "function"
    },
    {
      "inputs": [],
      "name": "getAllFarmers",
      "outputs": [
        {
          "components": [
            {
              "internalType": "uint256",
              "name": "id",
              "type": "uint256"
            },
            {
              "internalType": "string",
              "name": "name",
              "type": "string"
            },
            {
              "internalType": "address",
              "name": "farmerAddress",
              "type": "address"
            }
          ],
          "internalType": "struct CropRecord.Farmer[]",
          "name": "",
          "type": "tuple[]"
        }
      ],
      "stateMutability": "view",
      "type": "function"
    },
    {
      "inputs": [
        {
          "internalType": "uint256",
          "name": "",
          "type": "uint256"
        }
      ],
      "name": "hasMintedNFT",
      "outputs": [
        {
          "internalType": "bool",
          "name": "",
          "type": "bool"
        }
      ],
      "stateMutability": "view",
      "type": "function"
    },
    {
      "inputs": [
        {
          "internalType": "address",
          "name": "",
          "type": "address"
        }
      ],
      "name": "isFarmerRegistered",
      "outputs": [
        {
          "internalType": "bool",
          "name": "",
          "type": "bool"
        }
      ],
      "stateMutability": "view",
      "type": "function"
    },
    {
      "inputs": [
        {
          "internalType": "string",
          "name": "_cropType",
          "type": "string"
        },
        {
          "internalType": "uint256",
          "name": "_fieldArea",
          "type": "uint256"
        },
        {
          "internalType": "string",
          "name": "_description",
          "type": "string"
        }
      ],
      "name": "registerCrop",
      "outputs": [
        {
          "internalType": "uint256",
          "name": "",
          "type": "uint256"
        }
      ],
      "stateMutability": "nonpayable",
      "type": "function"
    },
    {
      "inputs": [
        {
          "internalType": "string",
          "name": "_name",
          "type": "string"
        }
      ],
      "name": "registerFarmer",
      "outputs": [],
      "stateMutability": "nonpayable",
      "type": "function"
    },
    {
      "inputs": [],
      "name": "tokenCount",
      "outputs": [
        {
          "internalType": "uint256",
          "name": "",
          "type": "uint256"
        }
      ],
      "stateMutability": "view",
      "type": "function"
    }
  ],
  "bytecode": "0x608060405234801561001057600080fd5b506115e7806100206000396000f3fe608060405234801561001057600080fd5b50600436106100a95760003560e01c806370c9f1a51161007157806370c9f1a51461018c5780637ba7295e146101c05780638afdd669146101dc5780639f181b5e1461020e578063bd45b3971461022c578063dfd55a2c1461024a576100a9565b80630ab4fa2b146100ae5780630c8d7fc8146100de5780634d9e87b61461010e578063536954e41461013e5780636762d43c1461015c575b600080fd5b6100c860048036038101906100c39190610ae2565b610268565b6040516100d59190610b28565b60405180910390f35b6100f860048036038101906100f39190610b6f565b610280565b6040516101059190610bb7565b60405180910390f35b61012860048036038101906101239190610d18565b6102a0565b6040516101359190610b28565b60405180910390f35b6101466104a8565b6040516101539190610f52565b60405180910390f35b61017660048036038101906101719190610ae2565b6105f9565b6040516101839190610bb7565b60405180910390f35b6101a660048036038101906101a19190610b6f565b610619565b6040516101b7959493929190610fbe565b60405180910390f35b6101da60048036038101906101d5919061101f565b61076f565b005b6101f660048036038101906101f19190610b6f565b61097c565b60405161020593929190611077565b60405180910390f35b610216610a5e565b6040516102239190610b28565b60405180910390f35b610234610a64565b6040516102419190610b28565b60405180910390f35b610252610a6a565b60405161025f9190610b28565b60405180910390f35b60016020528060005260406000206000915090505481565b60026020528060005260406000206000915054906101000a900460ff1681565b600080600160003373ffffffffffffffffffffffffffffffffffffffff1673ffffffffffffffffffffffffffffffffffffffff16815260200190815260200160002054905060008103610328576040517f08c379a000000000000000000000000000000000000000000000000000000000815260040161031f90611101565b60405180910390fd5b3373ffffffffffffffffffffffffffffffffffffffff166003828154811061035357610352611121565b5b906000526020600020906003020160020160009054906101000a900473ffffffffffffffffffffffffffffffffffffffff1673ffffffffffffffffffffffffffffffffffffffff16146103db576040517f08c379a00000000000000000000000000000000000000000000000000000000081526004016103d29061119c565b60405180910390fd5b60046040518060a00160405280600660008154809291906103fb906111eb565b9190505581526020018381526020018781526020018681526020018581525090806001815401808255809150506001900390600052602060002090600502016000909190919091506000820151816000015560208201518160010155604082015181600201908161046c919061143f565b5060608201518160030155608082015181600401908161048c919061143f565b505050600160065461049e9190611511565b9150509392505050565b60606003805480602002602001604051908101604052809291908181526020016000905b828210156105f057838290600052602060002090600302016040518060600160405290816000820154815260200160018201805461050990611262565b80601f016020809104026020016040519081016040528092919081815260200182805461053590611262565b80156105825780601f1061055757610100808354040283529160200191610582565b820191906000526020600020905b81548152906001019060200180831161056557829003601f168201915b505050505081526020016002820160009054906101000a900473ffffffffffffffffffffffffffffffffffffffff1673ffffffffffffffffffffffffffffffffffffffff1673ffffffffffffffffffffffffffffffffffffffff1681525050815260200190600101906104cc565b50505050905090565b60076020528060005260406000206000915054906101000a900460ff1681565b6004818154811061062957600080fd5b906000526020600020906005020160009150905080600001549080600101549080600201805461065890611262565b80601f016020809104026020016040519081016040528092919081815260200182805461068490611262565b80156106d15780601f106106a6576101008083540402835291602001916106d1565b820191906000526020600020905b8154815290600101906020018083116106b457829003601f168201915b5050505050908060030154908060040180546106ec90611262565b80601f016020809104026020016040519081016040528092919081815260200182805461071890611262565b80156107655780601f1061073a57610100808354040283529160200191610765565b820191906000526020600020905b81548152906001019060200180831161074857829003601f168201915b5050505050905085565b600760003373ffffffffffffffffffffffffffffffffffffffff1673ffffffffffffffffffffffffffffffffffffffff16815260200190815260200160002060009054906101000a900460ff16156107fc576040517f08c379a00000000000000000000000000000000000000000000000000000000081526004016107f390611591565b60405180910390fd5b600060056000815480929190610811906111eb565b919050559050600360405180606001604052808381526020018481526020013373ffffffffffffffffffffffffffffffffffffffff168152509080600181540180825580915050600190039060005260206000209060030201600090919091909150600082015181600001556020820151816001019081610892919061143f565b5060408201518160020160006101000a81548173ffffffffffffffffffffffffffffffffffffffff021916908373ffffffffffffffffffffffffffffffffffffffff160217905550505080600160003373ffffffffffffffffffffffffffffffffffffffff1673ffffffffffffffffffffffffffffffffffffffff168152602001908152602001600020819055506001600760003373ffffffffffffffffffffffffffffffffffffffff1673ffffffffffffffffffffffffffffffffffffffff16815260200190815260200160002060006101000a81548160ff0219169083151502179055505050565b6003818154811061098c57600080fd5b90600052602060002090600302016000915090508060000154908060010180546109b590611262565b80601f01602080910402602001604051908101604052809291908181526020018280546109e190611262565b8015610a2e5780601f10610a0357610100808354040283529160200191610a2e565b820191906000526020600020905b815481529060010190602001808311610a1157829003601f168201915b5050505050908060020160009054906101000a900473ffffffffffffffffffffffffffffffffffffffff16905083565b60005481565b60055481565b60065481565b6000604051905090565b600080fd5b600080fd5b600073ffffffffffffffffffffffffffffffffffffffff82169050919050565b6000610aaf82610a84565b9050919050565b610abf81610aa4565b8114610aca57600080fd5b50565b600081359050610adc81610ab6565b92915050565b600060208284031215610af857610af7610a7a565b5b6000610b0684828501610acd565b91505092915050565b6000819050919050565b610b2281610b0f565b82525050565b6000602082019050610b3d6000830184610b19565b92915050565b610b4c81610b0f565b8114610b5757600080fd5b50565b600081359050610b6981610b43565b92915050565b600060208284031215610b8557610b84610a7a565b5b6000610b9384828501610b5a565b91505092915050565b60008115159050919050565b610bb181610b9c565b82525050565b6000602082019050610bcc6000830184610ba8565b92915050565b600080fd5b600080fd5b6000601f19601f8301169050919050565b7f4e487b7100000000000000000000000000000000000000000000000000000000600052604160045260246000fd5b610c2582610bdc565b810181811067ffffffffffffffff82111715610c4457610c43610bed565b5b80604052505050565b6000610c57610a70565b9050610c638282610c1c565b919050565b600067ffffffffffffffff821115610c8357610c82610bed565b5b610c8c82610bdc565b9050602081019050919050565b82818337600083830152505050565b6000610cbb610cb684610c68565b610c4d565b905082815260208101848484011115610cd757610cd6610bd7565b5b610ce2848285610c99565b509392505050565b600082601f830112610cff57610cfe610bd2565b5b8135610d0f848260208601610ca8565b91505092915050565b600080600060608486031215610d3157610d30610a7a565b5b600084013567ffffffffffffffff811115610d4f57610d4e610a7f565b5b610d5b86828701610cea565b9350506020610d6c86828701610b5a565b925050604084013567ffffffffffffffff811115610d8d57610d8c610a7f565b5b610d9986828701610cea565b9150509250925092565b600081519050919050565b600082825260208201905092915050565b6000819050602082019050919050565b610dd881610b0f565b82525050565b600081519050919050565b600082825260208201905092915050565b60005b83811015610e18578082015181840152602081019050610dfd565b60008484015250505050565b6000610e2f82610dde565b610e398185610de9565b9350610e49818560208601610dfa565b610e5281610bdc565b840191505092915050565b610e6681610aa4565b82525050565b6000606083016000830151610e846000860182610dcf565b5060208301518482036020860152610e9c8282610e24565b9150506040830151610eb16040860182610e5d565b508091505092915050565b6000610ec88383610e6c565b905092915050565b6000602082019050919050565b6000610ee882610da3565b610ef28185610dae565b935083602082028501610f0485610dbf565b8060005b85811015610f405784840389528151610f218582610ebc565b9450610f2c83610ed0565b925060208a01995050600181019050610f08565b50829750879550505050505092915050565b60006020820190508181036000830152610f6c8184610edd565b905092915050565b600082825260208201905092915050565b6000610f9082610dde565b610f9a8185610f74565b9350610faa818560208601610dfa565b610fb381610bdc565b840191505092915050565b600060a082019050610fd36000830188610b19565b610fe06020830187610b19565b8181036040830152610ff28186610f85565b90506110016060830185610b19565b81810360808301526110138184610f85565b90509695505050505050565b60006020828403121561103557611034610a7a565b5b600082013567ffffffffffffffff81111561105357611052610a7f565b5b61105f84828501610cea565b91505092915050565b61107181610aa4565b82525050565b600060608201905061108c6000830186610b19565b818103602083015261109e8185610f85565b90506110ad6040830184611068565b949350505050565b7f4661726d6572206e6f7420726567697374657265640000000000000000000000600082015250565b60006110eb601583610f74565b91506110f6826110b5565b602082019050919050565b6000602082019050818103600083015261111a816110de565b9050919050565b7f4e487b7100000000000000000000000000000000000000000000000000000000600052603260045260246000fd5b7f496e76616c6964206661726d6572204944000000000000000000000000000000600082015250565b6000611186601183610f74565b915061119182611150565b602082019050919050565b600060208201905081810360008301526111b581611179565b9050919050565b7f4e487b7100000000000000000000000000000000000000000000000000000000600052601160045260246000fd5b60006111f682610b0f565b91507fffffffffffffffffffffffffffffffffffffffffffffffffffffffffffffffff8203611228576112276111bc565b5b600182019050919050565b7f4e487b7100000000000000000000000000000000000000000000000000000000600052602260045260246000fd5b6000600282049050600182168061127a57607f821691505b60208210810361128d5761128c611233565b5b50919050565b60008190508160005260206000209050919050565b60006020601f8301049050919050565b600082821b905092915050565b6000600883026112f57fffffffffffffffffffffffffffffffffffffffffffffffffffffffffffffffff826112b8565b6112ff86836112b8565b95508019841693508086168417925050509392505050565b6000819050919050565b600061133c61133761133284610b0f565b611317565b610b0f565b9050919050565b6000819050919050565b61135683611321565b61136a61136282611343565b8484546112c5565b825550505050565b600090565b61137f611372565b61138a81848461134d565b505050565b5b818110156113ae576113a3600082611377565b600181019050611390565b5050565b601f8211156113f3576113c481611293565b6113cd846112a8565b810160208510156113dc578190505b6113f06113e8856112a8565b83018261138f565b50505b505050565b600082821c905092915050565b6000611416600019846008026113f8565b1980831691505092915050565b600061142f8383611405565b9150826002028217905092915050565b61144882610dde565b67ffffffffffffffff81111561146157611460610bed565b5b61146b8254611262565b6114768282856113b2565b600060209050601f8311600181146114a95760008415611497578287015190505b6114a18582611423565b865550611509565b601f1984166114b786611293565b60005b828110156114df578489015182556001820191506020850194506020810190506114ba565b868310156114fc57848901516114f8601f891682611405565b8355505b6001600288020188555050505b505050505050565b600061151c82610b0f565b915061152783610b0f565b925082820390508181111561153f5761153e6111bc565b5b92915050565b7f4661726d657220616c7265616479207265676973746572656400000000000000600082015250565b600061157b601983610f74565b915061158682611545565b602082019050919050565b600060208201905081810360008301526115aa8161156e565b905091905056fea264697066735822122011fa8aa8215a94a5edbaecf1d2007c40267abb3c63bf01864a7d5ec8364d354c64736f6c63430008140033",
  "linkReferences": {},
  "deployedLinkReferences": {}
}